{
  "_format": "hh-sol-artifact-1",
  "contractName": "MarketplaceMind",
  "sourceName": "contracts/MarketplaceMind.sol",
  "abi": [
    {
      "anonymous": false,
      "inputs": [
        {
          "indexed": true,
          "internalType": "bytes32",
          "name": "role",
          "type": "bytes32"
        },
        {
          "indexed": true,
          "internalType": "bytes32",
          "name": "previousAdminRole",
          "type": "bytes32"
        },
        {
          "indexed": true,
          "internalType": "bytes32",
          "name": "newAdminRole",
          "type": "bytes32"
        }
      ],
      "name": "RoleAdminChanged",
      "type": "event"
    },
    {
      "anonymous": false,
      "inputs": [
        {
          "indexed": true,
          "internalType": "bytes32",
          "name": "role",
          "type": "bytes32"
        },
        {
          "indexed": true,
          "internalType": "address",
          "name": "account",
          "type": "address"
        },
        {
          "indexed": true,
          "internalType": "address",
          "name": "sender",
          "type": "address"
        }
      ],
      "name": "RoleGranted",
      "type": "event"
    },
    {
      "anonymous": false,
      "inputs": [
        {
          "indexed": true,
          "internalType": "bytes32",
          "name": "role",
          "type": "bytes32"
        },
        {
          "indexed": true,
          "internalType": "address",
          "name": "account",
          "type": "address"
        },
        {
          "indexed": true,
          "internalType": "address",
          "name": "sender",
          "type": "address"
        }
      ],
      "name": "RoleRevoked",
      "type": "event"
    },
    {
      "inputs": [],
      "name": "DEFAULT_ADMIN_ROLE",
      "outputs": [
        {
          "internalType": "bytes32",
          "name": "",
          "type": "bytes32"
        }
      ],
      "stateMutability": "view",
      "type": "function"
    },
    {
      "inputs": [],
      "name": "USER_ROLE",
      "outputs": [
        {
          "internalType": "bytes32",
          "name": "",
          "type": "bytes32"
        }
      ],
      "stateMutability": "view",
      "type": "function"
    },
    {
      "inputs": [
        {
          "internalType": "address",
          "name": "account",
          "type": "address"
        }
      ],
      "name": "addAdmin",
      "outputs": [],
      "stateMutability": "nonpayable",
      "type": "function"
    },
    {
      "inputs": [
        {
          "internalType": "uint256",
          "name": "collectionID",
          "type": "uint256"
        },
        {
          "internalType": "uint256",
          "name": "token_id",
          "type": "uint256"
        },
        {
          "internalType": "uint256",
          "name": "price",
          "type": "uint256"
        }
      ],
      "name": "addListing",
      "outputs": [],
      "stateMutability": "nonpayable",
      "type": "function"
    },
    {
      "inputs": [
        {
          "internalType": "address",
          "name": "account",
          "type": "address"
        }
      ],
      "name": "addUser",
      "outputs": [],
      "stateMutability": "nonpayable",
      "type": "function"
    },
    {
      "inputs": [
        {
          "internalType": "uint256",
          "name": "collectionID",
          "type": "uint256"
        },
        {
          "internalType": "uint256",
          "name": "listing_id",
          "type": "uint256"
        }
      ],
      "name": "buy",
      "outputs": [],
      "stateMutability": "payable",
      "type": "function"
    },
    {
      "inputs": [
        {
          "internalType": "uint256",
          "name": "amount",
          "type": "uint256"
        }
      ],
      "name": "calculateFee",
      "outputs": [
        {
          "internalType": "uint256",
          "name": "",
          "type": "uint256"
        }
      ],
      "stateMutability": "view",
      "type": "function"
    },
    {
      "inputs": [
        {
          "internalType": "uint256",
          "name": "newValue",
          "type": "uint256"
        }
      ],
      "name": "changeTransactionFee",
      "outputs": [],
      "stateMutability": "nonpayable",
      "type": "function"
    },
    {
      "inputs": [
        {
          "internalType": "address",
          "name": "",
          "type": "address"
        }
      ],
      "name": "countCollection",
      "outputs": [
        {
          "internalType": "uint256",
          "name": "",
          "type": "uint256"
        }
      ],
      "stateMutability": "view",
      "type": "function"
    },
    {
      "inputs": [],
      "name": "fee_fixed",
      "outputs": [
        {
          "internalType": "uint256",
          "name": "",
          "type": "uint256"
        }
      ],
      "stateMutability": "view",
      "type": "function"
    },
    {
      "inputs": [
        {
          "internalType": "uint256",
          "name": "collectionID",
          "type": "uint256"
        },
        {
          "internalType": "uint256",
          "name": "index",
          "type": "uint256"
        }
      ],
      "name": "getActiveListings",
      "outputs": [
        {
          "internalType": "uint256",
          "name": "",
          "type": "uint256"
        }
      ],
      "stateMutability": "view",
      "type": "function"
    },
    {
      "inputs": [
        {
          "internalType": "uint256",
          "name": "collectionID",
          "type": "uint256"
        }
      ],
      "name": "getActiveListingsCount",
      "outputs": [
        {
          "internalType": "uint256",
          "name": "",
          "type": "uint256"
        }
      ],
      "stateMutability": "view",
      "type": "function"
    },
    {
      "inputs": [
        {
          "internalType": "address",
          "name": "_oracle",
          "type": "address"
        },
        {
          "internalType": "uint256",
          "name": "_decimal",
          "type": "uint256"
        }
      ],
      "name": "getLatestPrice",
      "outputs": [
        {
          "internalType": "uint256",
          "name": "",
          "type": "uint256"
        }
      ],
      "stateMutability": "view",
      "type": "function"
    },
    {
      "inputs": [
        {
          "internalType": "uint256",
          "name": "collectionID",
          "type": "uint256"
        },
        {
          "internalType": "uint256",
          "name": "listing_id",
          "type": "uint256"
        }
      ],
      "name": "getListing",
      "outputs": [
        {
          "components": [
            {
              "internalType": "address",
              "name": "owner",
              "type": "address"
            },
            {
              "internalType": "bool",
              "name": "is_active",
              "type": "bool"
            },
            {
              "internalType": "uint256",
              "name": "token_id",
              "type": "uint256"
            },
            {
              "internalType": "uint256",
              "name": "price",
              "type": "uint256"
            }
          ],
          "internalType": "struct MarketplaceMind.Listing",
          "name": "listing",
          "type": "tuple"
        }
      ],
      "stateMutability": "view",
      "type": "function"
    },
    {
      "inputs": [
        {
          "internalType": "uint256",
          "name": "collectionID",
          "type": "uint256"
        },
        {
          "internalType": "address",
          "name": "owner",
          "type": "address"
        },
        {
          "internalType": "uint256",
          "name": "index",
          "type": "uint256"
        }
      ],
      "name": "getListingsByOwner",
      "outputs": [
        {
          "internalType": "uint256",
          "name": "",
          "type": "uint256"
        }
      ],
      "stateMutability": "view",
      "type": "function"
    },
    {
      "inputs": [
        {
          "internalType": "uint256",
          "name": "collectionID",
          "type": "uint256"
        },
        {
          "internalType": "address",
          "name": "owner",
          "type": "address"
        }
      ],
      "name": "getListingsByOwnerCount",
      "outputs": [
        {
          "internalType": "uint256",
          "name": "",
          "type": "uint256"
        }
      ],
      "stateMutability": "view",
      "type": "function"
    },
    {
      "inputs": [
        {
          "internalType": "uint256",
          "name": "collectionID",
          "type": "uint256"
        }
      ],
      "name": "getListingsCount",
      "outputs": [
        {
          "internalType": "uint256",
          "name": "",
          "type": "uint256"
        }
      ],
      "stateMutability": "view",
      "type": "function"
    },
    {
      "inputs": [
        {
          "internalType": "bytes32",
          "name": "role",
          "type": "bytes32"
        }
      ],
      "name": "getRoleAdmin",
      "outputs": [
        {
          "internalType": "bytes32",
          "name": "",
          "type": "bytes32"
        }
      ],
      "stateMutability": "view",
      "type": "function"
    },
    {
      "inputs": [
        {
          "internalType": "bytes32",
          "name": "role",
          "type": "bytes32"
        },
        {
          "internalType": "address",
          "name": "account",
          "type": "address"
        }
      ],
      "name": "grantRole",
      "outputs": [],
      "stateMutability": "nonpayable",
      "type": "function"
    },
    {
      "inputs": [
        {
          "internalType": "bytes32",
          "name": "role",
          "type": "bytes32"
        },
        {
          "internalType": "address",
          "name": "account",
          "type": "address"
        }
      ],
      "name": "hasRole",
      "outputs": [
        {
          "internalType": "bool",
          "name": "",
          "type": "bool"
        }
      ],
      "stateMutability": "view",
      "type": "function"
    },
    {
      "inputs": [
        {
          "internalType": "address",
          "name": "account",
          "type": "address"
        }
      ],
      "name": "isAdmin",
      "outputs": [
        {
          "internalType": "bool",
          "name": "",
          "type": "bool"
        }
      ],
      "stateMutability": "view",
      "type": "function"
    },
    {
      "inputs": [
        {
          "internalType": "address",
          "name": "account",
          "type": "address"
        }
      ],
      "name": "isUser",
      "outputs": [
        {
          "internalType": "bool",
          "name": "",
          "type": "bool"
        }
      ],
      "stateMutability": "view",
      "type": "function"
    },
    {
      "inputs": [
        {
          "internalType": "uint8",
          "name": "_type",
          "type": "uint8"
        },
        {
          "internalType": "uint256",
          "name": "_id",
          "type": "uint256"
        },
        {
          "internalType": "bool",
          "name": "_bool",
          "type": "bool"
        },
        {
          "internalType": "address",
          "name": "_address",
          "type": "address"
        }
      ],
      "name": "pairChange",
      "outputs": [],
      "stateMutability": "nonpayable",
      "type": "function"
    },
    {
      "inputs": [],
      "name": "pairCount",
      "outputs": [
        {
          "internalType": "uint256",
          "name": "",
          "type": "uint256"
        }
      ],
      "stateMutability": "view",
      "type": "function"
    },
    {
      "inputs": [],
      "name": "pairList",
      "outputs": [
        {
          "components": [
            {
              "internalType": "address",
              "name": "sc_address",
              "type": "address"
            },
            {
              "internalType": "bool",
              "name": "active",
              "type": "bool"
            }
          ],
          "internalType": "struct Factory.Collection[]",
          "name": "",
          "type": "tuple[]"
        }
      ],
      "stateMutability": "view",
      "type": "function"
    },
    {
      "inputs": [
        {
          "internalType": "address",
          "name": "_sc_address",
          "type": "address"
        },
        {
          "internalType": "bool",
          "name": "_active",
          "type": "bool"
        }
      ],
      "name": "registerPair",
      "outputs": [],
      "stateMutability": "nonpayable",
      "type": "function"
    },
    {
      "inputs": [
        {
          "internalType": "uint256",
          "name": "collectionID",
          "type": "uint256"
        },
        {
          "internalType": "uint256",
          "name": "listing_id",
          "type": "uint256"
        }
      ],
      "name": "removeListing",
      "outputs": [],
      "stateMutability": "nonpayable",
      "type": "function"
    },
    {
      "inputs": [
        {
          "internalType": "address",
          "name": "account",
          "type": "address"
        }
      ],
      "name": "removeUser",
      "outputs": [],
      "stateMutability": "nonpayable",
      "type": "function"
    },
    {
      "inputs": [],
      "name": "renounceAdmin",
      "outputs": [],
      "stateMutability": "nonpayable",
      "type": "function"
    },
    {
      "inputs": [
        {
          "internalType": "bytes32",
          "name": "role",
          "type": "bytes32"
        },
        {
          "internalType": "address",
          "name": "account",
          "type": "address"
        }
      ],
      "name": "renounceRole",
      "outputs": [],
      "stateMutability": "nonpayable",
      "type": "function"
    },
    {
      "inputs": [
        {
          "internalType": "bytes32",
          "name": "role",
          "type": "bytes32"
        },
        {
          "internalType": "address",
          "name": "account",
          "type": "address"
        }
      ],
      "name": "revokeRole",
      "outputs": [],
      "stateMutability": "nonpayable",
      "type": "function"
    },
    {
      "inputs": [
        {
          "internalType": "address",
          "name": "_address",
          "type": "address"
        }
      ],
      "name": "setVaultAddress",
      "outputs": [],
      "stateMutability": "nonpayable",
      "type": "function"
    },
    {
      "inputs": [
        {
          "internalType": "bytes4",
          "name": "interfaceId",
          "type": "bytes4"
        }
      ],
      "name": "supportsInterface",
      "outputs": [
        {
          "internalType": "bool",
          "name": "",
          "type": "bool"
        }
      ],
      "stateMutability": "view",
      "type": "function"
    },
    {
      "inputs": [],
      "name": "vaultAddress",
      "outputs": [
        {
          "internalType": "address",
          "name": "",
          "type": "address"
        }
      ],
      "stateMutability": "view",
      "type": "function"
    },
    {
      "inputs": [
        {
          "internalType": "uint256",
          "name": "amount",
          "type": "uint256"
        }
      ],
      "name": "withdrawMaticOwner",
      "outputs": [],
      "stateMutability": "payable",
      "type": "function"
    },
    {
      "inputs": [
        {
          "internalType": "address",
          "name": "_token",
          "type": "address"
        },
        {
          "internalType": "uint256",
          "name": "_amount",
          "type": "uint256"
        }
      ],
      "name": "withdrawTokenOnwer",
      "outputs": [],
      "stateMutability": "nonpayable",
      "type": "function"
    }
  ],
  "bytecode": "0x60806040526103e8600455600580546001600160a01b03191690553480156200002757600080fd5b50620000356000336200007f565b620000627f2db9fd3d099848027c2383d0a083396f6c41510d7acfd92adc99b6cffcf31e9660006200008f565b6000600255600580546001600160a01b031916331790556200017a565b6200008b8282620000da565b5050565b600082815260208190526040808220600101805490849055905190918391839186917fbd79b86ffe0ab8e8776151514217cd7cacd52c909f66475c3af44e129f0b00ff9190a4505050565b6000828152602081815260408083206001600160a01b038516845290915290205460ff166200008b576000828152602081815260408083206001600160a01b03851684529091529020805460ff19166001179055620001363390565b6001600160a01b0316816001600160a01b0316837f2f8788117e7eff1d82e926ec794901d17c78024a50270940304540a733656f0d60405160405180910390a45050565b61230f806200018a6000396000f3fe60806040526004361061020f5760003560e01c80636bf434731161011857806399a5d747116100a0578063c245d9891161006f578063c245d989146106fb578063d547741f14610728578063d6febde814610748578063f971bd421461075b578063fd98e3631461077b57600080fd5b806399a5d747146105bc578063a217fddf146105dc578063adb2fc6a146105f1578063c128b231146106db57600080fd5b80638809c9bf116100e75780638809c9bf146105315780638bad0c0a146105475780638da106561461055c57806391d148541461057c578063985751881461059c57600080fd5b80636bf434731461048e578063700ea444146104d157806370480275146104f157806385535cc51461051157600080fd5b80633dc5306b1161019b5780634747c6b71161016a5780634747c6b7146103ec57806351978a6b1461040c57806352a151891461042e5780635300a3061461044e5780635753369e1461046e57600080fd5b80633dc5306b146103615780634209fff114610374578063421b2d8b14610394578063430bf08a146103b457600080fd5b8063173fd1db116101e2578063173fd1db146102bb578063248a9ca3146102d157806324d7806c146103015780632f2ff15d1461032157806336568abe1461034157600080fd5b806301ffc9a714610214578063059d8ad9146102495780630b33bc4a146102775780631311916114610299575b600080fd5b34801561022057600080fd5b5061023461022f366004611cb4565b61079b565b60405190151581526020015b60405180910390f35b34801561025557600080fd5b50610269610264366004611cde565b6107d2565b604051908152602001610240565b34801561028357600080fd5b50610297610292366004611cf7565b61084f565b005b3480156102a557600080fd5b506102696000805160206122ba83398151915281565b3480156102c757600080fd5b5061026960025481565b3480156102dd57600080fd5b506102696102ec366004611cde565b60009081526020819052604090206001015490565b34801561030d57600080fd5b5061023461031c366004611d38565b610b4d565b34801561032d57600080fd5b5061029761033c366004611d55565b610b59565b34801561034d57600080fd5b5061029761035c366004611d55565b610b83565b61029761036f366004611cde565b610c01565b34801561038057600080fd5b5061023461038f366004611d38565b610cb7565b3480156103a057600080fd5b506102976103af366004611d38565b610cd1565b3480156103c057600080fd5b506005546103d4906001600160a01b031681565b6040516001600160a01b039091168152602001610240565b3480156103f857600080fd5b50610269610407366004611d55565b610d0e565b34801561041857600080fd5b50610421610dc1565b6040516102409190611d85565b34801561043a57600080fd5b50610269610449366004611ddf565b610ea1565b34801561045a57600080fd5b50610297610469366004611cde565b610f40565b34801561047a57600080fd5b50610269610489366004611e0b565b610f6a565b34801561049a57600080fd5b506102696104a9366004611cde565b6000908152600160209081526040808320546001600160a01b03168352600690915290205490565b3480156104dd57600080fd5b506102976104ec366004611e43565b611036565b3480156104fd57600080fd5b5061029761050c366004611d38565b61122b565b34801561051d57600080fd5b5061029761052c366004611d38565b61125b565b34801561053d57600080fd5b5061026960045481565b34801561055357600080fd5b506102976112a2565b34801561056857600080fd5b50610297610577366004611e73565b6112af565b34801561058857600080fd5b50610234610597366004611d55565b611340565b3480156105a857600080fd5b506102976105b7366004611d38565b611369565b3480156105c857600080fd5b506102696105d7366004611cde565b6113a6565b3480156105e857600080fd5b50610269600081565b3480156105fd57600080fd5b5061069d61060c366004611e43565b604080516080810182526000808252602082018190529181018290526060810191909152506000918252600160208181526040808520546001600160a01b0390811686526007835281862094865293825293849020845160808101865281549485168152600160a01b90940460ff161515918401919091529081015492820192909252600290910154606082015290565b604051610240919081516001600160a01b03168152602080830151151590820152604080830151908201526060918201519181019190915260800190565b3480156106e757600080fd5b506102696106f6366004611e43565b6113c3565b34801561070757600080fd5b50610269610716366004611d38565b60066020526000908152604090205481565b34801561073457600080fd5b50610297610743366004611d55565b611457565b610297610756366004611e43565b61147c565b34801561076757600080fd5b50610297610776366004611ea1565b611803565b34801561078757600080fd5b50610297610796366004611ddf565b611896565b60006001600160e01b03198216637965db0b60e01b14806107cc57506301ffc9a760e01b6001600160e01b03198316145b92915050565b600081815260016020908152604080832080546001600160a01b03168452600690925282205482805b828110156108465783546001600160a01b03166000908152600760209081526040808320848452909152902054600160a01b900460ff161561083e576001820191505b6001016107fb565b50949350505050565b60035460ff161561087b5760405162461bcd60e51b815260040161087290611efa565b60405180910390fd5b6003805460ff19166001179055806108d55760405162461bcd60e51b815260206004820181905260248201527f546865207072696365206d7573742062652067726561746572207468616e20306044820152606401610872565b60008381526001602052604090208054600160a01b900460ff1661093b5760405162461bcd60e51b815260206004820152601c60248201527f54686520636f6c6c656374696f6e206973206e6f7420616374697665000000006044820152606401610872565b80546001600160a01b0316600081815260066020526040908190205490516331a9108f60e11b815260048101869052909190636352211e9060240160206040518083038186803b15801561098e57600080fd5b505afa1580156109a2573d6000803e3d6000fd5b505050506040513d601f19601f820116820180604052508101906109c69190611f22565b6001600160a01b0316336001600160a01b031614610a265760405162461bcd60e51b815260206004820152601e60248201527f5374616b654e66743a2053656e646572206d757374206265206f776e657200006044820152606401610872565b6040518060800160405280610a383390565b6001600160a01b0390811682526001602080840182905260408085018a9052606094850189905287548416600090815260078352818120888252835281902086518154938801511515600160a01b026001600160a81b0319909416951694909417919091178355840151828201559290910151600290910155610abc9082906119b5565b82546001600160a01b0390811660009081526006602052604080822093909355845483516323b872dd60e01b81523360048201523060248201526044810189905293519216926323b872dd926064808301939282900301818387803b158015610b2457600080fd5b505af1158015610b38573d6000803e3d6000fd5b50506003805460ff1916905550505050505050565b60006107cc8183611340565b600082815260208190526040902060010154610b74816119c1565b610b7e83836119cb565b505050565b6001600160a01b0381163314610bf35760405162461bcd60e51b815260206004820152602f60248201527f416363657373436f6e74726f6c3a2063616e206f6e6c792072656e6f756e636560448201526e103937b632b9903337b91039b2b63360891b6064820152608401610872565b610bfd8282611a4f565b5050565b610c0a33610b4d565b610c265760405162461bcd60e51b815260040161087290611f3f565b604051339082156108fc029083906000818181858888f19350505050610cb45760405162461bcd60e51b815260206004820152603c60248201527f57697468647261774d617469634f776e65723a204661696c656420746f20747260448201527f616e7366657220746f6b656e20746f2066656520636f6e7472616374000000006064820152608401610872565b50565b60006107cc6000805160206122ba83398151915283611340565b610cda33610b4d565b610cf65760405162461bcd60e51b815260040161087290611f3f565b610cb46000805160206122ba83398151915282610b59565b600082815260016020908152604080832080546001600160a01b03168452600690925282205482805b82811015610db75783546001600160a01b03166000908152600760209081526040808320848452909152902054600160a01b900460ff168015610da3575083546001600160a01b0390811660009081526007602090815260408083208584529091529020548116908716145b15610daf576001820191505b600101610d37565b5095945050505050565b6060600060025467ffffffffffffffff811115610de057610de0611f6e565b604051908082528060200260200182016040528015610e2557816020015b6040805180820190915260008082526020820152815260200190600190039081610dfe5790505b50905060005b600254811015610e9b57600081815260016020908152604091829020825180840190935280546001600160a01b0381168452600160a01b900460ff161515918301919091528351909190849084908110610e8757610e87611f84565b602090810291909101015250600101610e2b565b50919050565b6000808390506000816001600160a01b031663feaf968c6040518163ffffffff1660e01b815260040160a06040518083038186803b158015610ee257600080fd5b505afa158015610ef6573d6000803e3d6000fd5b505050506040513d601f19601f82011682018060405250810190610f1a9190611fb9565b50505091505083600a610f2d9190612103565b610f37908261210f565b95945050505050565b610f4933610cb7565b610f655760405162461bcd60e51b81526004016108729061212e565b600455565b600083815260016020908152604080832080546001600160a01b03168452600690925282205482805b828110156110265783546001600160a01b03166000908152600760209081526040808320848452909152902054600160a01b900460ff168015610fff575083546001600160a01b0390811660009081526007602090815260408083208584529091529020548116908816145b1561101e578186141561101757935061102f92505050565b6001820191505b600101610f93565b50600093505050505b9392505050565b60035460ff16156110595760405162461bcd60e51b815260040161087290611efa565b6003805460ff1916600190811790915560008381526020919091526040902061107f3390565b81546001600160a01b03908116600090815260076020908152604080832087845290915290205481169116146110f75760405162461bcd60e51b815260206004820152601d60248201527f52656d6f7665204c697374696e673a204d757374206265206f776e65720000006044820152606401610872565b80546001600160a01b03166000908152600760209081526040808320858452909152902054600160a01b900460ff166111725760405162461bcd60e51b815260206004820152601e60248201527f52656d6f7665204c697374696e673a204d7573742062652061637469766500006044820152606401610872565b80546001600160a01b0390811660009081526007602081815260408084208785528252808420805460ff60a01b19169055855490941680845291815283832086845290528282206001015483516323b872dd60e01b81523060048201523360248201526044810191909152925190926323b872dd92606480830193919282900301818387803b15801561120457600080fd5b505af1158015611218573d6000803e3d6000fd5b50506003805460ff191690555050505050565b61123433610b4d565b6112505760405162461bcd60e51b815260040161087290611f3f565b610cb4600082610b59565b61126433610cb7565b6112805760405162461bcd60e51b81526004016108729061212e565b600580546001600160a01b0319166001600160a01b0392909216919091179055565b6112ad600033610b83565b565b6112b833610cb7565b6112d45760405162461bcd60e51b81526004016108729061212e565b6040805180820182526001600160a01b038085168252831515602080840191825260028054600090815260019092529481209351845492511515600160a01b026001600160a81b031990931693169290921717909155815491906113378361215c565b91905055505050565b6000918252602082815260408084206001600160a01b0393909316845291905290205460ff1690565b61137233610b4d565b61138e5760405162461bcd60e51b815260040161087290611f3f565b610cb46000805160206122ba83398151915282611457565b6000612710600454836113b9919061210f565b6107cc9190612177565b600082815260016020908152604080832080546001600160a01b03168452600690925282205482805b8281101561144a5783546001600160a01b03166000908152600760209081526040808320848452909152902054600160a01b900460ff1615611442578186141561143b5793506107cc92505050565b6001820191505b6001016113ec565b5060009695505050505050565b600082815260208190526040902060010154611472816119c1565b610b7e8383611a4f565b60035460ff161561149f5760405162461bcd60e51b815260040161087290611efa565b6003805460ff19166001179055346114f95760405162461bcd60e51b815260206004820152601a60248201527f4275793a2053656e64202062757920736f6d6520746f6b656e730000000000006044820152606401610872565b600082815260016020908152604080832080546001600160a01b031684526007835281842085855290925290912054600160a01b900460ff166115745760405162461bcd60e51b81526020600482015260136024820152724275793a204d7573742062652061637469766560681b6044820152606401610872565b80546001600160a01b0316600090815260076020908152604080832085845290915290206002015434146115ea5760405162461bcd60e51b815260206004820152601760248201527f4275793a204d75737420706179207468652070726963650000000000000000006044820152606401610872565b80546001600160a01b0390811660009081526007602081815260408084208785528252808420805460ff60a01b1916905585549094168084529181528383208684529052908290206001015491516323b872dd60e01b81523060048201523360248201526044810192909252906323b872dd90606401600060405180830381600087803b15801561167a57600080fd5b505af115801561168e573d6000803e3d6000fd5b50505050600061169d346113a6565b6005546040519192506001600160a01b03169082156108fc029083906000818181858888f1935050505061172f5760405162461bcd60e51b815260206004820152603360248201527f4275793a204661696c656420746f207472616e7366657220746f6b656e20746f604482015272103332b29031b7b73a3930b1ba1027bbb732b960691b6064820152608401610872565b81546001600160a01b0390811660009081526007602090815260408083208784529091528082205490519192839291169034908381818185875af1925050503d806000811461179a576040519150601f19603f3d011682016040523d82523d6000602084013e61179f565b606091505b5091509150816117f15760405162461bcd60e51b815260206004820152601960248201527f4275793a204661696c656420746f2073656e64204574686572000000000000006044820152606401610872565b50506003805460ff1916905550505050565b61180c33610cb7565b6118285760405162461bcd60e51b81526004016108729061212e565b8360ff166001141561186057600083815260016020526040902080546001600160a01b0319166001600160a01b038316179055611890565b8360ff1660031415611890576000838152600160205260409020805460ff60a01b1916600160a01b841515021790555b50505050565b61189f33610b4d565b6118bb5760405162461bcd60e51b815260040161087290611f3f565b6001600160a01b03821663a9059cbb336040516001600160e01b031960e084901b1681526001600160a01b03909116600482015260248101849052604401602060405180830381600087803b15801561191357600080fd5b505af1158015611927573d6000803e3d6000fd5b505050506040513d601f19601f8201168201806040525081019061194b9190612199565b610bfd5760405162461bcd60e51b815260206004820152603560248201527f5769746864726177546f6b656e4f6e7765723a204661696c656420746f20747260448201527430b739b332b9103a37b5b2b7103a379027b73bb2b960591b6064820152608401610872565b600061102f82846121b6565b610cb48133611ab4565b6119d58282611340565b610bfd576000828152602081815260408083206001600160a01b03851684529091529020805460ff19166001179055611a0b3390565b6001600160a01b0316816001600160a01b0316837f2f8788117e7eff1d82e926ec794901d17c78024a50270940304540a733656f0d60405160405180910390a45050565b611a598282611340565b15610bfd576000828152602081815260408083206001600160a01b0385168085529252808320805460ff1916905551339285917ff6391f5c32d9c69d2a47ea670b442974b53935d1edc7fd64eb21e047a839171b9190a45050565b611abe8282611340565b610bfd57611ad6816001600160a01b03166014611b18565b611ae1836020611b18565b604051602001611af29291906121fa565b60408051601f198184030181529082905262461bcd60e51b82526108729160040161226f565b60606000611b2783600261210f565b611b329060026121b6565b67ffffffffffffffff811115611b4a57611b4a611f6e565b6040519080825280601f01601f191660200182016040528015611b74576020820181803683370190505b509050600360fc1b81600081518110611b8f57611b8f611f84565b60200101906001600160f81b031916908160001a905350600f60fb1b81600181518110611bbe57611bbe611f84565b60200101906001600160f81b031916908160001a9053506000611be284600261210f565b611bed9060016121b6565b90505b6001811115611c65576f181899199a1a9b1b9c1cb0b131b232b360811b85600f1660108110611c2157611c21611f84565b1a60f81b828281518110611c3757611c37611f84565b60200101906001600160f81b031916908160001a90535060049490941c93611c5e816122a2565b9050611bf0565b50831561102f5760405162461bcd60e51b815260206004820181905260248201527f537472696e67733a20686578206c656e67746820696e73756666696369656e746044820152606401610872565b600060208284031215611cc657600080fd5b81356001600160e01b03198116811461102f57600080fd5b600060208284031215611cf057600080fd5b5035919050565b600080600060608486031215611d0c57600080fd5b505081359360208301359350604090920135919050565b6001600160a01b0381168114610cb457600080fd5b600060208284031215611d4a57600080fd5b813561102f81611d23565b60008060408385031215611d6857600080fd5b823591506020830135611d7a81611d23565b809150509250929050565b602080825282518282018190526000919060409081850190868401855b82811015611dd257815180516001600160a01b031685528601511515868501529284019290850190600101611da2565b5091979650505050505050565b60008060408385031215611df257600080fd5b8235611dfd81611d23565b946020939093013593505050565b600080600060608486031215611e2057600080fd5b833592506020840135611e3281611d23565b929592945050506040919091013590565b60008060408385031215611e5657600080fd5b50508035926020909101359150565b8015158114610cb457600080fd5b60008060408385031215611e8657600080fd5b8235611e9181611d23565b91506020830135611d7a81611e65565b60008060008060808587031215611eb757600080fd5b843560ff81168114611ec857600080fd5b9350602085013592506040850135611edf81611e65565b91506060850135611eef81611d23565b939692955090935050565b6020808252600e908201526d4e6f2072652d656e7472616e637960901b604082015260600190565b600060208284031215611f3457600080fd5b815161102f81611d23565b6020808252601590820152742932b9ba3934b1ba32b2103a379030b236b4b7399760591b604082015260600190565b634e487b7160e01b600052604160045260246000fd5b634e487b7160e01b600052603260045260246000fd5b805169ffffffffffffffffffff81168114611fb457600080fd5b919050565b600080600080600060a08688031215611fd157600080fd5b611fda86611f9a565b9450602086015193506040860151925060608601519150611ffd60808701611f9a565b90509295509295909350565b634e487b7160e01b600052601160045260246000fd5b600181815b8085111561205a57816000190482111561204057612040612009565b8085161561204d57918102915b93841c9390800290612024565b509250929050565b600082612071575060016107cc565b8161207e575060006107cc565b8160018114612094576002811461209e576120ba565b60019150506107cc565b60ff8411156120af576120af612009565b50506001821b6107cc565b5060208310610133831016604e8410600b84101617156120dd575081810a6107cc565b6120e7838361201f565b80600019048211156120fb576120fb612009565b029392505050565b600061102f8383612062565b600081600019048311821515161561212957612129612009565b500290565b6020808252601490820152732932b9ba3934b1ba32b2103a37903ab9b2b9399760611b604082015260600190565b600060001982141561217057612170612009565b5060010190565b60008261219457634e487b7160e01b600052601260045260246000fd5b500490565b6000602082840312156121ab57600080fd5b815161102f81611e65565b600082198211156121c9576121c9612009565b500190565b60005b838110156121e95781810151838201526020016121d1565b838111156118905750506000910152565b7f416363657373436f6e74726f6c3a206163636f756e74200000000000000000008152600083516122328160178501602088016121ce565b7001034b99036b4b9b9b4b733903937b6329607d1b60179184019182015283516122638160288401602088016121ce565b01602801949350505050565b602081526000825180602084015261228e8160408501602087016121ce565b601f01601f19169190910160400192915050565b6000816122b1576122b1612009565b50600019019056fe2db9fd3d099848027c2383d0a083396f6c41510d7acfd92adc99b6cffcf31e96a2646970667358221220170b2f3dc1891bdf0175361a4184f6de1341bf98a9f3d409e5ba5022e06d68ab64736f6c63430008090033",
  "linkReferences": {},
  "deployedLinkReferences": {}
}