{
  "_format": "hh-sol-artifact-1",
  "contractName": "MarketplaceMind",
  "sourceName": "contracts/MarketplaceMind.sol",
  "abi": [
    {
      "anonymous": false,
      "inputs": [
        {
          "indexed": true,
          "internalType": "bytes32",
          "name": "role",
          "type": "bytes32"
        },
        {
          "indexed": true,
          "internalType": "bytes32",
          "name": "previousAdminRole",
          "type": "bytes32"
        },
        {
          "indexed": true,
          "internalType": "bytes32",
          "name": "newAdminRole",
          "type": "bytes32"
        }
      ],
      "name": "RoleAdminChanged",
      "type": "event"
    },
    {
      "anonymous": false,
      "inputs": [
        {
          "indexed": true,
          "internalType": "bytes32",
          "name": "role",
          "type": "bytes32"
        },
        {
          "indexed": true,
          "internalType": "address",
          "name": "account",
          "type": "address"
        },
        {
          "indexed": true,
          "internalType": "address",
          "name": "sender",
          "type": "address"
        }
      ],
      "name": "RoleGranted",
      "type": "event"
    },
    {
      "anonymous": false,
      "inputs": [
        {
          "indexed": true,
          "internalType": "bytes32",
          "name": "role",
          "type": "bytes32"
        },
        {
          "indexed": true,
          "internalType": "address",
          "name": "account",
          "type": "address"
        },
        {
          "indexed": true,
          "internalType": "address",
          "name": "sender",
          "type": "address"
        }
      ],
      "name": "RoleRevoked",
      "type": "event"
    },
    {
      "inputs": [],
      "name": "DEFAULT_ADMIN_ROLE",
      "outputs": [
        {
          "internalType": "bytes32",
          "name": "",
          "type": "bytes32"
        }
      ],
      "stateMutability": "view",
      "type": "function"
    },
    {
      "inputs": [],
      "name": "USER_ROLE",
      "outputs": [
        {
          "internalType": "bytes32",
          "name": "",
          "type": "bytes32"
        }
      ],
      "stateMutability": "view",
      "type": "function"
    },
    {
      "inputs": [
        {
          "internalType": "address",
          "name": "account",
          "type": "address"
        }
      ],
      "name": "addAdmin",
      "outputs": [],
      "stateMutability": "nonpayable",
      "type": "function"
    },
    {
      "inputs": [
        {
          "internalType": "uint256",
          "name": "collectionID",
          "type": "uint256"
        },
        {
          "internalType": "uint256",
          "name": "token_id",
          "type": "uint256"
        },
        {
          "internalType": "uint256",
          "name": "price",
          "type": "uint256"
        }
      ],
      "name": "addListing",
      "outputs": [],
      "stateMutability": "nonpayable",
      "type": "function"
    },
    {
      "inputs": [
        {
          "internalType": "address",
          "name": "account",
          "type": "address"
        }
      ],
      "name": "addUser",
      "outputs": [],
      "stateMutability": "nonpayable",
      "type": "function"
    },
    {
      "inputs": [
        {
          "internalType": "uint256",
          "name": "collectionID",
          "type": "uint256"
        },
        {
          "internalType": "uint256",
          "name": "listing_id",
          "type": "uint256"
        }
      ],
      "name": "buy",
      "outputs": [],
      "stateMutability": "payable",
      "type": "function"
    },
    {
      "inputs": [
        {
          "internalType": "uint256",
          "name": "amount",
          "type": "uint256"
        }
      ],
      "name": "calculateFee",
      "outputs": [
        {
          "internalType": "uint256",
          "name": "",
          "type": "uint256"
        }
      ],
      "stateMutability": "view",
      "type": "function"
    },
    {
      "inputs": [
        {
          "internalType": "uint256",
          "name": "newValue",
          "type": "uint256"
        }
      ],
      "name": "changeTransactionFee",
      "outputs": [],
      "stateMutability": "nonpayable",
      "type": "function"
    },
    {
      "inputs": [
        {
          "internalType": "address",
          "name": "",
          "type": "address"
        }
      ],
      "name": "countCollection",
      "outputs": [
        {
          "internalType": "uint256",
          "name": "",
          "type": "uint256"
        }
      ],
      "stateMutability": "view",
      "type": "function"
    },
    {
      "inputs": [],
      "name": "fee_fixed",
      "outputs": [
        {
          "internalType": "uint256",
          "name": "",
          "type": "uint256"
        }
      ],
      "stateMutability": "view",
      "type": "function"
    },
    {
      "inputs": [
        {
          "internalType": "uint256",
          "name": "collectionID",
          "type": "uint256"
        },
        {
          "internalType": "uint256",
          "name": "index",
          "type": "uint256"
        }
      ],
      "name": "getActiveListings",
      "outputs": [
        {
          "internalType": "uint256",
          "name": "",
          "type": "uint256"
        }
      ],
      "stateMutability": "view",
      "type": "function"
    },
    {
      "inputs": [
        {
          "internalType": "uint256",
          "name": "collectionID",
          "type": "uint256"
        }
      ],
      "name": "getActiveListingsCount",
      "outputs": [
        {
          "internalType": "uint256",
          "name": "",
          "type": "uint256"
        }
      ],
      "stateMutability": "view",
      "type": "function"
    },
    {
      "inputs": [
        {
          "internalType": "address",
          "name": "_oracle",
          "type": "address"
        },
        {
          "internalType": "uint256",
          "name": "_decimal",
          "type": "uint256"
        }
      ],
      "name": "getLatestPrice",
      "outputs": [
        {
          "internalType": "uint256",
          "name": "",
          "type": "uint256"
        }
      ],
      "stateMutability": "view",
      "type": "function"
    },
    {
      "inputs": [
        {
          "internalType": "uint256",
          "name": "collectionID",
          "type": "uint256"
        }
      ],
      "name": "getListActive",
      "outputs": [
        {
          "components": [
            {
              "internalType": "address",
              "name": "owner",
              "type": "address"
            },
            {
              "internalType": "bool",
              "name": "is_active",
              "type": "bool"
            },
            {
              "internalType": "uint256",
              "name": "token_id",
              "type": "uint256"
            },
            {
              "internalType": "uint256",
              "name": "price",
              "type": "uint256"
            }
          ],
          "internalType": "struct MarketplaceMind.Listing[]",
          "name": "",
          "type": "tuple[]"
        }
      ],
      "stateMutability": "view",
      "type": "function"
    },
    {
      "inputs": [
        {
          "internalType": "uint256",
          "name": "collectionID",
          "type": "uint256"
        },
        {
          "internalType": "uint256",
          "name": "listing_id",
          "type": "uint256"
        }
      ],
      "name": "getListing",
      "outputs": [
        {
          "components": [
            {
              "internalType": "address",
              "name": "owner",
              "type": "address"
            },
            {
              "internalType": "bool",
              "name": "is_active",
              "type": "bool"
            },
            {
              "internalType": "uint256",
              "name": "token_id",
              "type": "uint256"
            },
            {
              "internalType": "uint256",
              "name": "price",
              "type": "uint256"
            }
          ],
          "internalType": "struct MarketplaceMind.Listing",
          "name": "listing",
          "type": "tuple"
        }
      ],
      "stateMutability": "view",
      "type": "function"
    },
    {
      "inputs": [
        {
          "internalType": "uint256",
          "name": "collectionID",
          "type": "uint256"
        },
        {
          "internalType": "address",
          "name": "owner",
          "type": "address"
        },
        {
          "internalType": "uint256",
          "name": "index",
          "type": "uint256"
        }
      ],
      "name": "getListingsByOwner",
      "outputs": [
        {
          "internalType": "uint256",
          "name": "",
          "type": "uint256"
        }
      ],
      "stateMutability": "view",
      "type": "function"
    },
    {
      "inputs": [
        {
          "internalType": "uint256",
          "name": "collectionID",
          "type": "uint256"
        },
        {
          "internalType": "address",
          "name": "owner",
          "type": "address"
        }
      ],
      "name": "getListingsByOwnerCount",
      "outputs": [
        {
          "internalType": "uint256",
          "name": "",
          "type": "uint256"
        }
      ],
      "stateMutability": "view",
      "type": "function"
    },
    {
      "inputs": [
        {
          "internalType": "uint256",
          "name": "collectionID",
          "type": "uint256"
        }
      ],
      "name": "getListingsCount",
      "outputs": [
        {
          "internalType": "uint256",
          "name": "",
          "type": "uint256"
        }
      ],
      "stateMutability": "view",
      "type": "function"
    },
    {
      "inputs": [
        {
          "internalType": "bytes32",
          "name": "role",
          "type": "bytes32"
        }
      ],
      "name": "getRoleAdmin",
      "outputs": [
        {
          "internalType": "bytes32",
          "name": "",
          "type": "bytes32"
        }
      ],
      "stateMutability": "view",
      "type": "function"
    },
    {
      "inputs": [
        {
          "internalType": "bytes32",
          "name": "role",
          "type": "bytes32"
        },
        {
          "internalType": "address",
          "name": "account",
          "type": "address"
        }
      ],
      "name": "grantRole",
      "outputs": [],
      "stateMutability": "nonpayable",
      "type": "function"
    },
    {
      "inputs": [
        {
          "internalType": "bytes32",
          "name": "role",
          "type": "bytes32"
        },
        {
          "internalType": "address",
          "name": "account",
          "type": "address"
        }
      ],
      "name": "hasRole",
      "outputs": [
        {
          "internalType": "bool",
          "name": "",
          "type": "bool"
        }
      ],
      "stateMutability": "view",
      "type": "function"
    },
    {
      "inputs": [
        {
          "internalType": "address",
          "name": "account",
          "type": "address"
        }
      ],
      "name": "isAdmin",
      "outputs": [
        {
          "internalType": "bool",
          "name": "",
          "type": "bool"
        }
      ],
      "stateMutability": "view",
      "type": "function"
    },
    {
      "inputs": [
        {
          "internalType": "address",
          "name": "account",
          "type": "address"
        }
      ],
      "name": "isUser",
      "outputs": [
        {
          "internalType": "bool",
          "name": "",
          "type": "bool"
        }
      ],
      "stateMutability": "view",
      "type": "function"
    },
    {
      "inputs": [
        {
          "internalType": "uint8",
          "name": "_type",
          "type": "uint8"
        },
        {
          "internalType": "uint256",
          "name": "_id",
          "type": "uint256"
        },
        {
          "internalType": "bool",
          "name": "_bool",
          "type": "bool"
        },
        {
          "internalType": "address",
          "name": "_address",
          "type": "address"
        }
      ],
      "name": "pairChange",
      "outputs": [],
      "stateMutability": "nonpayable",
      "type": "function"
    },
    {
      "inputs": [],
      "name": "pairCount",
      "outputs": [
        {
          "internalType": "uint256",
          "name": "",
          "type": "uint256"
        }
      ],
      "stateMutability": "view",
      "type": "function"
    },
    {
      "inputs": [],
      "name": "pairList",
      "outputs": [
        {
          "components": [
            {
              "internalType": "address",
              "name": "sc_address",
              "type": "address"
            },
            {
              "internalType": "bool",
              "name": "active",
              "type": "bool"
            }
          ],
          "internalType": "struct Factory.Collection[]",
          "name": "",
          "type": "tuple[]"
        }
      ],
      "stateMutability": "view",
      "type": "function"
    },
    {
      "inputs": [
        {
          "internalType": "address",
          "name": "_sc_address",
          "type": "address"
        },
        {
          "internalType": "bool",
          "name": "_active",
          "type": "bool"
        }
      ],
      "name": "registerPair",
      "outputs": [],
      "stateMutability": "nonpayable",
      "type": "function"
    },
    {
      "inputs": [
        {
          "internalType": "uint256",
          "name": "collectionID",
          "type": "uint256"
        },
        {
          "internalType": "uint256",
          "name": "listing_id",
          "type": "uint256"
        }
      ],
      "name": "removeListing",
      "outputs": [],
      "stateMutability": "nonpayable",
      "type": "function"
    },
    {
      "inputs": [
        {
          "internalType": "address",
          "name": "account",
          "type": "address"
        }
      ],
      "name": "removeUser",
      "outputs": [],
      "stateMutability": "nonpayable",
      "type": "function"
    },
    {
      "inputs": [],
      "name": "renounceAdmin",
      "outputs": [],
      "stateMutability": "nonpayable",
      "type": "function"
    },
    {
      "inputs": [
        {
          "internalType": "bytes32",
          "name": "role",
          "type": "bytes32"
        },
        {
          "internalType": "address",
          "name": "account",
          "type": "address"
        }
      ],
      "name": "renounceRole",
      "outputs": [],
      "stateMutability": "nonpayable",
      "type": "function"
    },
    {
      "inputs": [
        {
          "internalType": "bytes32",
          "name": "role",
          "type": "bytes32"
        },
        {
          "internalType": "address",
          "name": "account",
          "type": "address"
        }
      ],
      "name": "revokeRole",
      "outputs": [],
      "stateMutability": "nonpayable",
      "type": "function"
    },
    {
      "inputs": [
        {
          "internalType": "address",
          "name": "_address",
          "type": "address"
        }
      ],
      "name": "setVaultAddress",
      "outputs": [],
      "stateMutability": "nonpayable",
      "type": "function"
    },
    {
      "inputs": [
        {
          "internalType": "bytes4",
          "name": "interfaceId",
          "type": "bytes4"
        }
      ],
      "name": "supportsInterface",
      "outputs": [
        {
          "internalType": "bool",
          "name": "",
          "type": "bool"
        }
      ],
      "stateMutability": "view",
      "type": "function"
    },
    {
      "inputs": [],
      "name": "vaultAddress",
      "outputs": [
        {
          "internalType": "address",
          "name": "",
          "type": "address"
        }
      ],
      "stateMutability": "view",
      "type": "function"
    },
    {
      "inputs": [
        {
          "internalType": "uint256",
          "name": "amount",
          "type": "uint256"
        }
      ],
      "name": "withdrawMaticOwner",
      "outputs": [],
      "stateMutability": "payable",
      "type": "function"
    },
    {
      "inputs": [
        {
          "internalType": "address",
          "name": "_token",
          "type": "address"
        },
        {
          "internalType": "uint256",
          "name": "_amount",
          "type": "uint256"
        }
      ],
      "name": "withdrawTokenOnwer",
      "outputs": [],
      "stateMutability": "nonpayable",
      "type": "function"
    }
  ],
  "bytecode": "0x60806040526103e8600455600580546001600160a01b03191690553480156200002757600080fd5b50620000356000336200007f565b620000627f2db9fd3d099848027c2383d0a083396f6c41510d7acfd92adc99b6cffcf31e9660006200008f565b6000600255600580546001600160a01b031916331790556200017a565b6200008b8282620000da565b5050565b600082815260208190526040808220600101805490849055905190918391839186917fbd79b86ffe0ab8e8776151514217cd7cacd52c909f66475c3af44e129f0b00ff9190a4505050565b6000828152602081815260408083206001600160a01b038516845290915290205460ff166200008b576000828152602081815260408083206001600160a01b03851684529091529020805460ff19166001179055620001363390565b6001600160a01b0316816001600160a01b0316837f2f8788117e7eff1d82e926ec794901d17c78024a50270940304540a733656f0d60405160405180910390a45050565b6124e5806200018a6000396000f3fe60806040526004361061021a5760003560e01c80635753369e1161012357806398575188116100ab578063c245d9891161006f578063c245d98914610702578063d547741f1461072f578063d6febde81461074f578063f971bd4214610762578063fd98e3631461078257600080fd5b806398575188146105d457806399a5d747146105f4578063a217fddf14610614578063adb2fc6a14610629578063c128b231146106e257600080fd5b806385535cc5116100f257806385535cc5146105495780638809c9bf146105695780638bad0c0a1461057f5780638da106561461059457806391d14854146105b457600080fd5b80635753369e146104a65780636bf43473146104c6578063700ea44414610509578063704802751461052957600080fd5b806336568abe116101a6578063430bf08a11610175578063430bf08a146103ec5780634747c6b71461042457806351978a6b1461044457806352a15189146104665780635300a3061461048657600080fd5b806336568abe146103795780633dc5306b146103995780634209fff1146103ac578063421b2d8b146103cc57600080fd5b8063173fd1db116101ed578063173fd1db146102c65780631d81c210146102dc578063248a9ca31461030957806324d7806c146103395780632f2ff15d1461035957600080fd5b806301ffc9a71461021f578063059d8ad9146102545780630b33bc4a1461028257806313119161146102a4575b600080fd5b34801561022b57600080fd5b5061023f61023a366004611ddd565b6107a2565b60405190151581526020015b60405180910390f35b34801561026057600080fd5b5061027461026f366004611e07565b6107d9565b60405190815260200161024b565b34801561028e57600080fd5b506102a261029d366004611e20565b610856565b005b3480156102b057600080fd5b5061027460008051602061249083398151915281565b3480156102d257600080fd5b5061027460025481565b3480156102e857600080fd5b506102fc6102f7366004611e07565b610b54565b60405161024b9190611e4c565b34801561031557600080fd5b50610274610324366004611e07565b60009081526020819052604090206001015490565b34801561034557600080fd5b5061023f610354366004611ed8565b610c76565b34801561036557600080fd5b506102a2610374366004611ef5565b610c82565b34801561038557600080fd5b506102a2610394366004611ef5565b610cac565b6102a26103a7366004611e07565b610d2a565b3480156103b857600080fd5b5061023f6103c7366004611ed8565b610de0565b3480156103d857600080fd5b506102a26103e7366004611ed8565b610dfa565b3480156103f857600080fd5b5060055461040c906001600160a01b031681565b6040516001600160a01b03909116815260200161024b565b34801561043057600080fd5b5061027461043f366004611ef5565b610e37565b34801561045057600080fd5b50610459610eea565b60405161024b9190611f25565b34801561047257600080fd5b50610274610481366004611f7f565b610fca565b34801561049257600080fd5b506102a26104a1366004611e07565b611069565b3480156104b257600080fd5b506102746104c1366004611fab565b611093565b3480156104d257600080fd5b506102746104e1366004611e07565b6000908152600160209081526040808320546001600160a01b03168352600690915290205490565b34801561051557600080fd5b506102a2610524366004611fe3565b61115f565b34801561053557600080fd5b506102a2610544366004611ed8565b611354565b34801561055557600080fd5b506102a2610564366004611ed8565b611384565b34801561057557600080fd5b5061027460045481565b34801561058b57600080fd5b506102a26113cb565b3480156105a057600080fd5b506102a26105af366004612013565b6113d8565b3480156105c057600080fd5b5061023f6105cf366004611ef5565b611469565b3480156105e057600080fd5b506102a26105ef366004611ed8565b611492565b34801561060057600080fd5b5061027461060f366004611e07565b6114cf565b34801561062057600080fd5b50610274600081565b34801561063557600080fd5b506106d5610644366004611fe3565b604080516080810182526000808252602082018190529181018290526060810191909152506000918252600160208181526040808520546001600160a01b0390811686526007835281862094865293825293849020845160808101865281549485168152600160a01b90940460ff161515918401919091529081015492820192909252600290910154606082015290565b60405161024b9190612041565b3480156106ee57600080fd5b506102746106fd366004611fe3565b6114ec565b34801561070e57600080fd5b5061027461071d366004611ed8565b60066020526000908152604090205481565b34801561073b57600080fd5b506102a261074a366004611ef5565b611580565b6102a261075d366004611fe3565b6115a5565b34801561076e57600080fd5b506102a261077d366004612077565b61192c565b34801561078e57600080fd5b506102a261079d366004611f7f565b6119bf565b60006001600160e01b03198216637965db0b60e01b14806107d357506301ffc9a760e01b6001600160e01b03198316145b92915050565b600081815260016020908152604080832080546001600160a01b03168452600690925282205482805b8281101561084d5783546001600160a01b03166000908152600760209081526040808320848452909152902054600160a01b900460ff1615610845576001820191505b600101610802565b50949350505050565b60035460ff16156108825760405162461bcd60e51b8152600401610879906120d0565b60405180910390fd5b6003805460ff19166001179055806108dc5760405162461bcd60e51b815260206004820181905260248201527f546865207072696365206d7573742062652067726561746572207468616e20306044820152606401610879565b60008381526001602052604090208054600160a01b900460ff166109425760405162461bcd60e51b815260206004820152601c60248201527f54686520636f6c6c656374696f6e206973206e6f7420616374697665000000006044820152606401610879565b80546001600160a01b0316600081815260066020526040908190205490516331a9108f60e11b815260048101869052909190636352211e9060240160206040518083038186803b15801561099557600080fd5b505afa1580156109a9573d6000803e3d6000fd5b505050506040513d601f19601f820116820180604052508101906109cd91906120f8565b6001600160a01b0316336001600160a01b031614610a2d5760405162461bcd60e51b815260206004820152601e60248201527f5374616b654e66743a2053656e646572206d757374206265206f776e657200006044820152606401610879565b6040518060800160405280610a3f3390565b6001600160a01b0390811682526001602080840182905260408085018a9052606094850189905287548416600090815260078352818120888252835281902086518154938801511515600160a01b026001600160a81b0319909416951694909417919091178355840151828201559290910151600290910155610ac3908290611ade565b82546001600160a01b0390811660009081526006602052604080822093909355845483516323b872dd60e01b81523360048201523060248201526044810189905293519216926323b872dd926064808301939282900301818387803b158015610b2b57600080fd5b505af1158015610b3f573d6000803e3d6000fd5b50506003805460ff1916905550505050505050565b6000818152600160205260408120606091610b6e846107d9565b905060008167ffffffffffffffff811115610b8b57610b8b612115565b604051908082528060200260200182016040528015610bdd57816020015b604080516080810182526000808252602080830182905292820181905260608201528252600019909201910181610ba95790505b50905060005b8281101561084d5783546001600160a01b039081166000908152600760209081526040808320858452825291829020825160808101845281549485168152600160a01b90940460ff16151591840191909152600181015491830191909152600281015460608301528351909190849084908110610c6257610c6261212b565b602090810291909101015250600101610be3565b60006107d38183611469565b600082815260208190526040902060010154610c9d81611aea565b610ca78383611af4565b505050565b6001600160a01b0381163314610d1c5760405162461bcd60e51b815260206004820152602f60248201527f416363657373436f6e74726f6c3a2063616e206f6e6c792072656e6f756e636560448201526e103937b632b9903337b91039b2b63360891b6064820152608401610879565b610d268282611b78565b5050565b610d3333610c76565b610d4f5760405162461bcd60e51b815260040161087990612141565b604051339082156108fc029083906000818181858888f19350505050610ddd5760405162461bcd60e51b815260206004820152603c60248201527f57697468647261774d617469634f776e65723a204661696c656420746f20747260448201527f616e7366657220746f6b656e20746f2066656520636f6e7472616374000000006064820152608401610879565b50565b60006107d360008051602061249083398151915283611469565b610e0333610c76565b610e1f5760405162461bcd60e51b815260040161087990612141565b610ddd60008051602061249083398151915282610c82565b600082815260016020908152604080832080546001600160a01b03168452600690925282205482805b82811015610ee05783546001600160a01b03166000908152600760209081526040808320848452909152902054600160a01b900460ff168015610ecc575083546001600160a01b0390811660009081526007602090815260408083208584529091529020548116908716145b15610ed8576001820191505b600101610e60565b5095945050505050565b6060600060025467ffffffffffffffff811115610f0957610f09612115565b604051908082528060200260200182016040528015610f4e57816020015b6040805180820190915260008082526020820152815260200190600190039081610f275790505b50905060005b600254811015610fc457600081815260016020908152604091829020825180840190935280546001600160a01b0381168452600160a01b900460ff161515918301919091528351909190849084908110610fb057610fb061212b565b602090810291909101015250600101610f54565b50919050565b6000808390506000816001600160a01b031663feaf968c6040518163ffffffff1660e01b815260040160a06040518083038186803b15801561100b57600080fd5b505afa15801561101f573d6000803e3d6000fd5b505050506040513d601f19601f82011682018060405250810190611043919061218f565b50505091505083600a61105691906122d9565b61106090826122e5565b95945050505050565b61107233610de0565b61108e5760405162461bcd60e51b815260040161087990612304565b600455565b600083815260016020908152604080832080546001600160a01b03168452600690925282205482805b8281101561114f5783546001600160a01b03166000908152600760209081526040808320848452909152902054600160a01b900460ff168015611128575083546001600160a01b0390811660009081526007602090815260408083208584529091529020548116908816145b15611147578186141561114057935061115892505050565b6001820191505b6001016110bc565b50600093505050505b9392505050565b60035460ff16156111825760405162461bcd60e51b8152600401610879906120d0565b6003805460ff191660019081179091556000838152602091909152604090206111a83390565b81546001600160a01b03908116600090815260076020908152604080832087845290915290205481169116146112205760405162461bcd60e51b815260206004820152601d60248201527f52656d6f7665204c697374696e673a204d757374206265206f776e65720000006044820152606401610879565b80546001600160a01b03166000908152600760209081526040808320858452909152902054600160a01b900460ff1661129b5760405162461bcd60e51b815260206004820152601e60248201527f52656d6f7665204c697374696e673a204d7573742062652061637469766500006044820152606401610879565b80546001600160a01b0390811660009081526007602081815260408084208785528252808420805460ff60a01b19169055855490941680845291815283832086845290528282206001015483516323b872dd60e01b81523060048201523360248201526044810191909152925190926323b872dd92606480830193919282900301818387803b15801561132d57600080fd5b505af1158015611341573d6000803e3d6000fd5b50506003805460ff191690555050505050565b61135d33610c76565b6113795760405162461bcd60e51b815260040161087990612141565b610ddd600082610c82565b61138d33610de0565b6113a95760405162461bcd60e51b815260040161087990612304565b600580546001600160a01b0319166001600160a01b0392909216919091179055565b6113d6600033610cac565b565b6113e133610de0565b6113fd5760405162461bcd60e51b815260040161087990612304565b6040805180820182526001600160a01b038085168252831515602080840191825260028054600090815260019092529481209351845492511515600160a01b026001600160a81b0319909316931692909217179091558154919061146083612332565b91905055505050565b6000918252602082815260408084206001600160a01b0393909316845291905290205460ff1690565b61149b33610c76565b6114b75760405162461bcd60e51b815260040161087990612141565b610ddd60008051602061249083398151915282611580565b6000612710600454836114e291906122e5565b6107d3919061234d565b600082815260016020908152604080832080546001600160a01b03168452600690925282205482805b828110156115735783546001600160a01b03166000908152600760209081526040808320848452909152902054600160a01b900460ff161561156b57818614156115645793506107d392505050565b6001820191505b600101611515565b5060009695505050505050565b60008281526020819052604090206001015461159b81611aea565b610ca78383611b78565b60035460ff16156115c85760405162461bcd60e51b8152600401610879906120d0565b6003805460ff19166001179055346116225760405162461bcd60e51b815260206004820152601a60248201527f4275793a2053656e64202062757920736f6d6520746f6b656e730000000000006044820152606401610879565b600082815260016020908152604080832080546001600160a01b031684526007835281842085855290925290912054600160a01b900460ff1661169d5760405162461bcd60e51b81526020600482015260136024820152724275793a204d7573742062652061637469766560681b6044820152606401610879565b80546001600160a01b0316600090815260076020908152604080832085845290915290206002015434146117135760405162461bcd60e51b815260206004820152601760248201527f4275793a204d75737420706179207468652070726963650000000000000000006044820152606401610879565b80546001600160a01b0390811660009081526007602081815260408084208785528252808420805460ff60a01b1916905585549094168084529181528383208684529052908290206001015491516323b872dd60e01b81523060048201523360248201526044810192909252906323b872dd90606401600060405180830381600087803b1580156117a357600080fd5b505af11580156117b7573d6000803e3d6000fd5b5050505060006117c6346114cf565b6005546040519192506001600160a01b03169082156108fc029083906000818181858888f193505050506118585760405162461bcd60e51b815260206004820152603360248201527f4275793a204661696c656420746f207472616e7366657220746f6b656e20746f604482015272103332b29031b7b73a3930b1ba1027bbb732b960691b6064820152608401610879565b81546001600160a01b0390811660009081526007602090815260408083208784529091528082205490519192839291169034908381818185875af1925050503d80600081146118c3576040519150601f19603f3d011682016040523d82523d6000602084013e6118c8565b606091505b50915091508161191a5760405162461bcd60e51b815260206004820152601960248201527f4275793a204661696c656420746f2073656e64204574686572000000000000006044820152606401610879565b50506003805460ff1916905550505050565b61193533610de0565b6119515760405162461bcd60e51b815260040161087990612304565b8360ff166001141561198957600083815260016020526040902080546001600160a01b0319166001600160a01b0383161790556119b9565b8360ff16600314156119b9576000838152600160205260409020805460ff60a01b1916600160a01b841515021790555b50505050565b6119c833610c76565b6119e45760405162461bcd60e51b815260040161087990612141565b6001600160a01b03821663a9059cbb336040516001600160e01b031960e084901b1681526001600160a01b03909116600482015260248101849052604401602060405180830381600087803b158015611a3c57600080fd5b505af1158015611a50573d6000803e3d6000fd5b505050506040513d601f19601f82011682018060405250810190611a74919061236f565b610d265760405162461bcd60e51b815260206004820152603560248201527f5769746864726177546f6b656e4f6e7765723a204661696c656420746f20747260448201527430b739b332b9103a37b5b2b7103a379027b73bb2b960591b6064820152608401610879565b6000611158828461238c565b610ddd8133611bdd565b611afe8282611469565b610d26576000828152602081815260408083206001600160a01b03851684529091529020805460ff19166001179055611b343390565b6001600160a01b0316816001600160a01b0316837f2f8788117e7eff1d82e926ec794901d17c78024a50270940304540a733656f0d60405160405180910390a45050565b611b828282611469565b15610d26576000828152602081815260408083206001600160a01b0385168085529252808320805460ff1916905551339285917ff6391f5c32d9c69d2a47ea670b442974b53935d1edc7fd64eb21e047a839171b9190a45050565b611be78282611469565b610d2657611bff816001600160a01b03166014611c41565b611c0a836020611c41565b604051602001611c1b9291906123d0565b60408051601f198184030181529082905262461bcd60e51b825261087991600401612445565b60606000611c508360026122e5565b611c5b90600261238c565b67ffffffffffffffff811115611c7357611c73612115565b6040519080825280601f01601f191660200182016040528015611c9d576020820181803683370190505b509050600360fc1b81600081518110611cb857611cb861212b565b60200101906001600160f81b031916908160001a905350600f60fb1b81600181518110611ce757611ce761212b565b60200101906001600160f81b031916908160001a9053506000611d0b8460026122e5565b611d1690600161238c565b90505b6001811115611d8e576f181899199a1a9b1b9c1cb0b131b232b360811b85600f1660108110611d4a57611d4a61212b565b1a60f81b828281518110611d6057611d6061212b565b60200101906001600160f81b031916908160001a90535060049490941c93611d8781612478565b9050611d19565b5083156111585760405162461bcd60e51b815260206004820181905260248201527f537472696e67733a20686578206c656e67746820696e73756666696369656e746044820152606401610879565b600060208284031215611def57600080fd5b81356001600160e01b03198116811461115857600080fd5b600060208284031215611e1957600080fd5b5035919050565b600080600060608486031215611e3557600080fd5b505081359360208301359350604090920135919050565b6020808252825182820181905260009190848201906040850190845b81811015611eb757611ea483855180516001600160a01b0316825260208082015115159083015260408082015190830152606090810151910152565b9284019260809290920191600101611e68565b50909695505050505050565b6001600160a01b0381168114610ddd57600080fd5b600060208284031215611eea57600080fd5b813561115881611ec3565b60008060408385031215611f0857600080fd5b823591506020830135611f1a81611ec3565b809150509250929050565b602080825282518282018190526000919060409081850190868401855b82811015611f7257815180516001600160a01b031685528601511515868501529284019290850190600101611f42565b5091979650505050505050565b60008060408385031215611f9257600080fd5b8235611f9d81611ec3565b946020939093013593505050565b600080600060608486031215611fc057600080fd5b833592506020840135611fd281611ec3565b929592945050506040919091013590565b60008060408385031215611ff657600080fd5b50508035926020909101359150565b8015158114610ddd57600080fd5b6000806040838503121561202657600080fd5b823561203181611ec3565b91506020830135611f1a81612005565b81516001600160a01b031681526020808301511515908201526040808301519082015260608083015190820152608081016107d3565b6000806000806080858703121561208d57600080fd5b843560ff8116811461209e57600080fd5b93506020850135925060408501356120b581612005565b915060608501356120c581611ec3565b939692955090935050565b6020808252600e908201526d4e6f2072652d656e7472616e637960901b604082015260600190565b60006020828403121561210a57600080fd5b815161115881611ec3565b634e487b7160e01b600052604160045260246000fd5b634e487b7160e01b600052603260045260246000fd5b6020808252601590820152742932b9ba3934b1ba32b2103a379030b236b4b7399760591b604082015260600190565b805169ffffffffffffffffffff8116811461218a57600080fd5b919050565b600080600080600060a086880312156121a757600080fd5b6121b086612170565b94506020860151935060408601519250606086015191506121d360808701612170565b90509295509295909350565b634e487b7160e01b600052601160045260246000fd5b600181815b80851115612230578160001904821115612216576122166121df565b8085161561222357918102915b93841c93908002906121fa565b509250929050565b600082612247575060016107d3565b81612254575060006107d3565b816001811461226a576002811461227457612290565b60019150506107d3565b60ff841115612285576122856121df565b50506001821b6107d3565b5060208310610133831016604e8410600b84101617156122b3575081810a6107d3565b6122bd83836121f5565b80600019048211156122d1576122d16121df565b029392505050565b60006111588383612238565b60008160001904831182151516156122ff576122ff6121df565b500290565b6020808252601490820152732932b9ba3934b1ba32b2103a37903ab9b2b9399760611b604082015260600190565b6000600019821415612346576123466121df565b5060010190565b60008261236a57634e487b7160e01b600052601260045260246000fd5b500490565b60006020828403121561238157600080fd5b815161115881612005565b6000821982111561239f5761239f6121df565b500190565b60005b838110156123bf5781810151838201526020016123a7565b838111156119b95750506000910152565b7f416363657373436f6e74726f6c3a206163636f756e74200000000000000000008152600083516124088160178501602088016123a4565b7001034b99036b4b9b9b4b733903937b6329607d1b60179184019182015283516124398160288401602088016123a4565b01602801949350505050565b60208152600082518060208401526124648160408501602087016123a4565b601f01601f19169190910160400192915050565b600081612487576124876121df565b50600019019056fe2db9fd3d099848027c2383d0a083396f6c41510d7acfd92adc99b6cffcf31e96a2646970667358221220e549f940848a97e6c49b8cd69a1e9c8afb0245bad65a26f1f616ce2f9fa17f9664736f6c63430008090033",
  "linkReferences": {},
  "deployedLinkReferences": {}
}